:020000040800F2
:1000000000500020C1440008FD40000803410008E2
:10001000094100080F4100081541000800000000D8
:100020000000000000000000000000001B4100086C
:100030002741000800000000334100083F4100084C
:100040000945000809450008094500080945000858
:100050000945000809450008094500080945000848
:100060000945000809450008094500080945000838
:100070000945000809450008094500080945000828
:100080000945000809450008094500080945000818
:100090000945000809450008094500080945000808
:1000A00009450008094500080945000809450008F8
:1000B00009450008094500080945000809450008E8
:1000C00009450008094500080945000809450008D8
:1000D00009450008094500080945000809450008C8
:1000E000094500080945000809450008000000000E
:1000F0000000000000000000000000000000000000
:0C01000000000000000000005FF808F1A3
:10010C00A3F5803A704700BF174B002B08BF134B69
:10011C009D46FFF7F5FF00218B460F461348144A06
:10012C00121A04F0D5FB0E4B002B00D098470D4B48
:10013C00002B00D098470020002104000D000D4832
:10014C00002802D00C4804F047FD04F09FFC20006E
:10015C00290003F045FF04F0D3F900BF00000800AC
:10016C0000000000000000000000000080050020DE
:10017C00F4080020E54B00080557000880B400AFD8
:10018C0000BFBD4680BC704780B485B000AF002373
:10019C00FB600023BB6000237B602F4B5B6803F08C
:1001AC000C03FB60FB68082B11D0FB68082B3AD8BA
:1001BC00FB68002B03D0FB68042B04D033E0274BE7
:1001CC00274A1A6033E0254B254A1A602FE0224B50
:1001DC005B6803F47013BB601F4B5B6803F48033E4
:1001EC007B60BB689B0C0233BB607B68002B06D129
:1001FC00BB681C4A02FB03F3184A136017E0164B4A
:10020C005B6803F40033002B06D0BB68154A02FB75
:10021C0003F3124A13600AE0BB68114A02FB03F3B2
:10022C000E4A136003E00D4B0D4A1A6000BF0A4BD7
:10023C005B681B0903F00F030B4AD35CFB60074B95
:10024C001A68FB6822FA03F3044A136000BF1437E0
:10025C00BD4680BC704700BF00100240000000206B
:10026C0000127A0000093D00E457000880B483B006
:10027C0000AF78603960074B1B6823F07F02796808
:10028C003B680B43034913430B6000BF0C37BD465F
:10029C0080BC70470000014080B400AF044B1B6869
:1002AC00034A43F08003136000BFBD4680BC704717
:1002BC000000014080B400AF044B1B68034A23F0DC
:1002CC008003136000BFBD4680BC70470000014036
:1002DC0080B500AF084B1B68074A43F0100313604E
:1002EC00032002F023FB0F2000F02CF803F028FF72
:1002FC000023184680BD00BF0020024080B500AF2F
:10030C00094B4FF0FF321A61074B00221A61064B62
:10031C004FF0FF32DA60044B0022DA6000F00CF888
:10032C000023184680BD00BF0010024080B400AF0F
:10033C0000BFBD4680BC704780B400AF00BFBD4657
:10034C0080BC704780B582B000AF7860124B1A68E1
:10035C00124B1B7819464FF47A73B3FBF1F3B2FBD3
:10036C00F3F3184602F029FB0346002B01D00123BE
:10037C000EE07B680F2B0AD8002279684FF0FF3013
:10038C0002F0DFFA064A7B681360002300E00123C9
:10039C0018460837BD4680BD00000020080000202C
:1003AC000400002080B400AF054B1B781A46054BA7
:1003BC001B681344034A136000BFBD4680BC7047E2
:1003CC00080000208005002080B400AF024B1B68A1
:1003DC001846BD4680BC70478005002080B400AF35
:1003EC00024B1B681846BD4680BC704704000020B9
:1003FC0080B584B000AF0346FB710023FB730E4B3A
:10040C001B78FA799A4212D00B4B1B78BB730A4AB1
:10041C00FB791370094B1B681846FFF793FF0346D3
:10042C00FB73FB7B002B02D0034ABB7B1370FB7B63
:10043C0018461037BD4680BD08000020040000207F
:10044C0080B400AF024B1B781846BD4680BC704789
:10045C000800002080B584B000AF7860FFF7B4FFCF
:10046C00B8607B68FB60FB68B3F1FF3F05D00A4BBB
:10047C001B781A46FB681344FB6000BFFFF7A4FF10
:10048C000246BB68D31AFA689A42F7D800BF00BF7D
:10049C001037BD4680BD00BF0800002080B400AFFF
:1004AC00044B1B68034A23F00203136000BFBD46D4
:1004BC0080BC704710E000E080B400AF044B1B68B8
:1004CC00034A43F00203136000BFBD4680BC704773
:1004DC0010E000E080B400AF024B1846BD4680BC73
:1004EC00704700BF000A010180B400AF034B1B68CA
:1004FC001B0C1846BD4680BC704700BF002004E0B2
:10050C0080B400AF034B1B68C3F30B031846BD4606
:10051C0080BC7047002004E080B400AF024B1B6825
:10052C001846BD4680BC7047E8F7FF1F80B400AF8B
:10053C00024B1B681846BD4680BC7047ECF7FF1F8A
:10054C0080B400AF024B1B681846BD4680BC704798
:10055C00F0F7FF1F80B400AF044B5B68034A43F015
:10056C000103536000BFBD4680BC7047002004E00F
:10057C0080B400AF044B5B68034A23F00103536063
:10058C0000BFBD4680BC7047002004E080B400AFC3
:10059C00044B5B68034A43F00203536000BFBD4643
:1005AC0080BC7047002004E080B400AF044B5B6853
:1005BC00034A23F00203536000BFBD4680BC704762
:1005CC00002004E080B400AF044B5B68034A43F0A6
:1005DC000403536000BFBD4680BC7047002004E09C
:1005EC0080B400AF044B5B68034A23F004035360F0
:1005FC0000BFBD4680BC7047002004E080B582B0CF
:10060C0000AFFFF7E1FE7860454B1B68444A43F0AE
:10061C000103136008E0FFF7D7FE02467B68D31A8C
:10062C00022B01D9032377E03D4B1B6803F0020337
:10063C00002BF0D03A4B1B6823F0F803384A43F0F8
:10064C0080031360FFF7C0FE7860354B00225A60C0
:10065C000AE0FFF7B9FE02467B68D31A41F28832F2
:10066C00934201D9032357E02D4B5B6803F00C0335
:10067C00002BEED12B4B2C4A1A602C4B1B681846C6
:10068C00FFF760FE0346002B01D0012344E0FFF787
:10069C009BFE7860224B1B68214A23F08073136009
:1006AC0008E0FFF791FE02467B68D31A022B01D9B2
:1006BC00032331E01A4B1B6803F00073002BF0D1BD
:1006CC00174B00225A60FFF77FFE7860144B1B68B3
:1006DC00134A23F41023136008E0FFF775FE02465B
:1006EC007B68D31A642B01D9032315E00C4B1B68D0
:1006FC0003F40033002BF0D1094B1B68084A23F498
:10070C0080231360064B5B6A054A43F08073536287
:10071C00034B00229A60002318460837BD4680BD63
:10072C00001002400000002000127A00040000209B
:10073C0080B586B000AF78607B68002B01D10123B7
:10074C0072E27B681B6803F00103002B00F08780CA
:10075C00924B5B6803F00C03042B0CD08F4B5B6843
:10076C0003F00C03082B12D18C4B5B6803F4803321
:10077C00B3F5803F0BD1894B1B6803F40033002B7E
:10078C006CD07B685B68002B68D101234CE27B68E2
:10079C005B68B3F5803F06D1804B1B687F4A43F4FE
:1007AC00803313602EE07B685B68002B0CD17B4B95
:1007BC001B687A4A23F480331360784B1B68774AA2
:1007CC0023F4802313601DE07B685B68B3F5A02FD6
:1007DC000CD1724B1B68714A43F4802313606F4B2E
:1007EC001B686E4A43F4803313600BE06B4B1B6841
:1007FC006A4A23F480331360684B1B68674A23F4FE
:10080C00802313607B685B68002B13D0FFF7DCFD43
:10081C00386108E0FFF7D8FD02463B69D31A642B18
:10082C0001D9032300E25D4B1B6803F40033002B5A
:10083C00F0D014E0FFF7C8FD386108E0FFF7C4FD05
:10084C0002463B69D31A642B01D90323ECE1534BC9
:10085C001B6803F40033002BF0D100E000BF7B6871
:10086C001B6803F00203002B63D04C4B5B6803F056
:10087C000C03002B0BD0494B5B6803F00C03082BCB
:10088C001CD1464B5B6803F48033002B16D1434BD1
:10089C001B6803F00203002B05D07B681B69012B3E
:1008AC0001D00123C0E13D4B1B6823F0F8027B68AB
:1008BC005B69DB00394913430B603AE07B681B69C9
:1008CC00002B20D0364B01221A60FFF77DFD3861DA
:1008DC0008E0FFF779FD02463B69D31A022B01D9D8
:1008EC000323A1E12D4B1B6803F00203002BF0D076
:1008FC002A4B1B6823F0F8027B685B69DB002749F5
:10090C0013430B6015E0264B00221A60FFF75CFDC9
:10091C00386108E0FFF758FD02463B69D31A022BF9
:10092C0001D9032380E11D4B1B6803F00203002B4C
:10093C00F0D17B681B6803F00803002B3AD07B686E
:10094C009B69002B19D0174B01221A60FFF73CFD55
:10095C00386108E0FFF738FD02463B69D31A022BD9
:10096C0001D9032360E10D4B5B6A03F00203002BFA
:10097C00F0D0012000F0E4FB1CE00A4B00221A60CE
:10098C00FFF722FD38610FE0FFF71EFD02463B69C1
:10099C00D31A022B08D9032346E100BF00100240F2
:1009AC000000424280044242924B5B6A03F0020315
:1009BC00002BE9D17B681B6803F00403002B00F0CB
:1009CC00A6800023FB758B4BDB6903F08053002B57
:1009DC000DD1884BDB69874A43F08053D361854B3B
:1009EC00DB6903F08053BB60BB680123FB75824B52
:1009FC001B6803F48073002B18D17F4B1B687E4A55
:100A0C0043F480731360FFF7DFFC386108E0FFF7F5
:100A1C00DBFC02463B69D31A642B01D9032303E1A7
:100A2C00754B1B6803F48073002BF0D07B68DB687C
:100A3C00012B06D16F4B1B6A6E4A43F00103136204
:100A4C002DE07B68DB68002B0CD16A4B1B6A694A72
:100A5C0023F001031362674B1B6A664A23F00403FD
:100A6C0013621CE07B68DB68052B0CD1614B1B6AA5
:100A7C00604A43F0040313625E4B1B6A5D4A43F009
:100A8C00010313620BE05B4B1B6A5A4A23F0010310
:100A9C001362584B1B6A574A23F0040313627B689A
:100AAC00DB68002B15D0FFF78FFC38610AE0FFF7ED
:100ABC008BFC02463B69D31A41F28832934201D92E
:100ACC000323B1E04B4B1B6A03F00203002BEED067
:100ADC0014E0FFF779FC38610AE0FFF775FC024679
:100AEC003B69D31A41F28832934201D903239BE02C
:100AFC00404B1B6A03F00203002BEED1FB7D012B54
:100B0C0005D13C4BDB693B4A23F08053D3617B68B6
:100B1C00DB69002B00F08780364B5B6803F00C031D
:100B2C00082B61D07B68DB69022B46D1334B00224A
:100B3C001A60FFF749FC386108E0FFF745FC0246F4
:100B4C003B69D31A022B01D903236DE0294B1B6897
:100B5C0003F00073002BF0D17B681B6AB3F5803F68
:100B6C0008D1244B5B6823F400327B689B682149D5
:100B7C0013434B601F4B5B6823F474127B68196A38
:100B8C007B685B6A0B431B4913434B601B4B012275
:100B9C001A60FFF719FC386108E0FFF715FC0246F4
:100BAC003B69D31A022B01D903233DE0114B1B687F
:100BBC0003F00073002BF0D035E0104B00221A60CC
:100BCC00FFF702FC386108E0FFF7FEFB02463B69C9
:100BDC00D31A022B01D9032326E0064B1B6803F022
:100BEC000073002BF0D11EE07B68DB69012B07D171
:100BFC00012319E0001002400070004060004242E6
:100C0C000B4B5B68FB60FB6803F480327B681B6AF0
:100C1C009A4206D1FB6803F470127B685B6A9A42B5
:100C2C0001D0012300E0002318461837BD4680BDD3
:100C3C000010024080B584B000AF786039607B68EA
:100C4C00002B01D10123D0E06A4B1B6803F0070392
:100C5C003A689A4210D9674B1B6823F00702654922
:100C6C003B6813430B60634B1B6803F007033A6844
:100C7C009A4201D00123B8E07B681B6803F00203A1
:100C8C00002B20D07B681B6803F00403002B05D0DD
:100C9C00594B5B68584A43F4E06353607B681B68AC
:100CAC0003F00803002B05D0534B5B68524A43F406
:100CBC0060535360504B5B6823F0F0027B689B6879
:100CCC004D4913434B607B681B6803F00103002BF9
:100CDC0040D07B685B68012B07D1474B1B6803F442
:100CEC000033002B15D101237FE07B685B68022B5E
:100CFC0007D1414B1B6803F00073002B09D1012372
:100D0C0073E03D4B1B6803F00203002B01D1012360
:100D1C006BE0394B5B6823F003027B685B683649F8
:100D2C0013434B60FFF750FBF8600AE0FFF74CFBF6
:100D3C000246FB68D31A41F28832934201D903234D
:100D4C0053E02D4B5B6803F00C027B685B689B00E7
:100D5C009A42EBD1274B1B6803F007033A689A427F
:100D6C0010D2244B1B6823F0070222493B68134323
:100D7C000B60204B1B6803F007033A689A4201D0C2
:100D8C00012332E07B681B6803F00403002B08D0BE
:100D9C00194B5B6823F4E0627B68DB6816491343EC
:100DAC004B607B681B6803F00803002B09D0124BC7
:100DBC005B6823F460527B681B69DB000E491343AC
:100DCC004B6000F071F802460B4B5B681B0903F09B
:100DDC000F030A49CB5C22FA03F3094A1360094B4F
:100DEC001B681846FFF7AEFA002318461037BD46AD
:100DFC0080BD00BF0020024000100240E4570008F4
:100E0C00000000200400002080B58AB000AFF8601C
:100E1C00B9607A6007F1180300221A605A609A6070
:100E2C00DA600223FB6103237B6200233B624FF4F5
:100E3C008073BB610E4B9B690D4A43F004039361B5
:100E4C000B4B9B6903F004037B617B6907F118036F
:100E5C001946084800F034FB054B5B6823F0E06250
:100E6C000349BB6813434B6000BF2837BD4680BDA8
:100E7C00001002400008014080B400AF034B012277
:100E8C001A6000BFBD4680BC704700BF4C00424298
:100E9C0080B400AF034B00221A6000BFBD4680BC7B
:100EAC00704700BF4C00424280B487B000AF0023B3
:100EBC00FB600023BB6000237B6100237B6000236D
:100ECC003B611E4B5B68FB60FB6803F00C03042B5F
:100EDC0002D0082B03D027E0194B3B6127E0FB68BD
:100EEC009B0C03F00F03174AD35C7B60FB6803F485
:100EFC008033002B10D0114B5B685B0C03F00103AB
:100F0C00114AD35CBB607B680D4A03FB02F2BB68E1
:100F1C00B2FBF3F37B6104E07B680C4A02FB03F346
:100F2C007B617B693B6102E0054B3B6100BF3B6928
:100F3C0018461C37BD4680BC704700BF00100240ED
:100F4C0000127A00FC5700080C58000800093D00FC
:100F5C0080B400AF024B1B681846BD4680BC70477E
:100F6C000000002080B500AFFFF7F2FF0246054BF2
:100F7C005B681B0A03F007030349CB5C22FA03F3FB
:100F8C00184680BD00100240F457000880B500AF31
:100F9C00FFF7DEFF0246054B5B68DB0A03F0070335
:100FAC000349CB5C22FA03F3184680BD00100240C3
:100FBC00F457000880B483B000AF78607B680F22D0
:100FCC001A603C4B1B6803F48023B3F5802F04D1CB
:100FDC007B684FF4A0225A600EE0364B1B6803F47A
:100FEC008033B3F5803F04D17B684FF480325A6074
:100FFC0002E07B6800225A602E4B5B6803F40032DF
:10100C007B689A602B4B1B6803F00103012B03D107
:10101C007B6801221A6102E07B6800221A61254B71
:10102C001B68DB0803F01F027B685A61214B1B6AAB
:10103C0003F00403042B03D17B680522DA600CE077
:10104C001C4B1B6A03F00103012B03D17B680122AB
:10105C00DA6002E07B680022DA60164B5B6A03F010
:10106C000103012B03D17B6801229A6102E07B68AA
:10107C0000229A610F4B1B6803F08073B3F1807FE1
:10108C0003D17B680222DA6102E07B680122DA611B
:10109C00084B5B6803F480327B681A62054B5B6813
:1010AC0003F470127B685A6200BF0C37BD4680BCDB
:1010BC00704700BF0010024080B483B000AF78606E
:1010CC0039607B680F221A60114B5B6803F00302D6
:1010DC007B685A600E4B5B6803F0F0027B689A6089
:1010EC000B4B5B6803F4E0627B68DA60084B5B686F
:1010FC00DB0803F4E0627B681A61064B1B6803F0A3
:10110C0007023B681A6000BF0C37BD4680BC7047B5
:10111C00001002400020024080B500AF064B9B68D7
:10112C0003F08003802B04D100F028F8034B8022BD
:10113C001A7000BF80BD00BF001002400A100240B0
:10114C0080B485B000AF78600A4B1B680A4AA2FBDA
:10115C0003235B0A7A6802FB03F3FB6000BFFB68A6
:10116C005A1EFA60002BF9D100BF00BF1437BD46E0
:10117C0080BC704700000020D34D621080B400AFDB
:10118C0000BFBD4680BC704780B586B000AF7860AC
:10119C0000233B610023FB607B681B6803F00103A9
:1011AC00002B7DD00023FB754F4BDB6903F0805384
:1011BC00002B0DD14C4BDB694B4A43F08053D36170
:1011CC00494BDB6903F08053BB60BB680123FB75A3
:1011DC00464B1B6803F48073002B18D1434B1B68E0
:1011EC00424A43F480731360FFF7EEF8386108E06D
:1011FC00FFF7EAF802463B69D31A642B01D90323A3
:10120C006DE03A4B1B6803F48073002BF0D0364B27
:10121C001B6A03F44073FB60FB68002B2ED07B68C9
:10122C005B6803F44073FA689A4227D02E4B1B6A12
:10123C0023F44073FB602E4B01221A602C4B0022CE
:10124C001A60294AFB681362FB6803F00103002B48
:10125C0014D0FFF7B9F838610AE0FFF7B5F8024689
:10126C003B69D31A41F28832934201D9032336E009
:10127C001D4B1B6A03F00203002BEED01A4B1B6AAA
:10128C0023F440727B685B68174913430B62FB7D48
:10129C00012B05D1144BDB69134A23F08053D36126
:1012AC007B681B6803F00203002B08D00E4B5B68B5
:1012BC0023F440427B689B680B4913434B607B686B
:1012CC001B6803F01003002B08D0074B5B6823F45A
:1012DC0080027B68DB68044913434B60002318468B
:1012EC001837BD4680BD00BF0010024000700040A2
:1012FC004004424280B485B000AF78600023FB60AC
:10130C007B6801221A60124B1B6A03F44073FB606A
:10131C007B68FA685A607B681B6843F002027B6842
:10132C001A600B4B5B6803F440427B689A607B68E5
:10133C001B6843F010027B681A60054B5B6803F472
:10134C0080027B68DA6000BF1437BD4680BC7047F2
:10135C000010024080B588B000AF786000237B613C
:10136C000023FB6100233B610023FB600023BB6176
:10137C007B68102B0AD07B68102B00F28A807B686C
:10138C00012B45D07B68022B75D082E0464B5B6805
:10139C00FB60454B1B6803F08073002B7BD0FB6814
:1013AC009B0C03F00F03414AD35C3B61FB6803F4D5
:1013BC008033002B15D03C4B5B685B0C03F00103B6
:1013CC003B4AD35C7B61FB6803F48033002B0DD06C
:1013DC00384A7B69B2FBF3F23B6902FB03F3FB6116
:1013EC0004E03B69344A02FB03F3FB612E4B5B6860
:1013FC0003F48003B3F5800F02D1FB69BB614AE0B3
:10140C00FB695B002D4AA2FB03235B08BB6142E036
:10141C00254B1B6AFB60FB6803F44073B3F5807FBC
:10142C0008D1FB6803F00203002B03D04FF40043F8
:10143C00BB611FE0FB6803F44073B3F5007F09D177
:10144C00194B5B6A03F00203002B03D049F64043AF
:10145C00BB610FE0FB6803F44073B3F5407F1CD114
:10146C00114B1B6803F40033002B16D04FF22443AE
:10147C00BB6112E011E0FFF789FD02460A4B5B6885
:10148C009B0B03F0030301335B00B2FBF3F3BB6173
:10149C0004E000BF02E000BF00E000BFBB691846DB
:1014AC002037BD4680BD00BF001002401058000818
:1014BC002058000800127A0000093D00ABAAAAAA25
:1014CC0080B48BB000AF7860396000237B6200235E
:1014DC003B6269E101227B6A02FA03F3FB613B6820
:1014EC001B68FA691340BB61BA69FB699A4240F008
:1014FC0058813B685B689A4A93425ED0984A934203
:10150C0075D8984A934258D0964A93426FD8964AC7
:10151C00934252D0944A934269D8944A93424CD005
:10152C00924A934263D8924A934246D0904A93424D
:10153C005DD8122B2AD8122B59D801A252F823F0BD
:10154C00C7150008A1150008B3150008F51500080B
:10155C00FB150008FB150008FB150008FB1500081F
:10156C00FB150008FB150008FB150008FB1500080F
:10157C00FB150008FB150008FB150008FB150008FF
:10158C00FB150008A9150008BD150008794A9342FF
:10159C0013D02CE03B68DB683B6229E03B68DB68DE
:1015AC0004333B6224E03B68DB6808333B621FE09A
:1015BC003B68DB680C333B621AE03B689B68002B92
:1015CC0002D104233B6213E03B689B68012B05D1DD
:1015DC0008233B627B68FA691A6109E008233B62C5
:1015EC007B68FA695A6103E000233B6200E000BFAC
:1015FC00BB69FF2B01D87B6801E07B6804337B61FE
:10160C00BB69FF2B02D87B6A9B0002E07B6A083B1C
:10161C009B003B617B691A680F213B6901FA03F35C
:10162C00DB431A40396A3B6901FA03F31A437B69BD
:10163C001A603B685B6803F08053002B00F0B180AC
:10164C004D4B9B694C4A43F0010393614A4B9B6998
:10165C0003F00103BB60BB68484A7B6A9B080233FA
:10166C0052F82330FB607B6A03F003039B000F22CC
:10167C0002FA03F3DB43FA681340FB607B68404AD1
:10168C00934213D07B683F4A93420DD07B683E4A0D
:10169C00934207D07B683D4A934201D1032306E075
:1016AC00042304E0022302E0012300E000237A6A11
:1016BC0002F0030292009340FA681343FB602F4937
:1016CC007B6A9B080233FA6841F823203B685B680D
:1016DC0003F48013002B06D02D4B9A682C49BB6960
:1016EC0013438B6006E02A4B9A68BB69DB4328499D
:1016FC0013408B603B685B6803F40013002B06D02F
:10170C00234BDA682249BB691343CB6006E0204BBC
:10171C00DA68BB69DB431E491340CB603B685B68EE
:10172C0003F40033002B06D0194B5A681849BB69D7
:10173C0013434B6006E0164B5A68BB69DB431449F4
:10174C0013404B603B685B6803F48033002B21D063
:10175C000F4B1A680E49BB6913430B6021E000BFA5
:10176C000000321000003110000022100000211087
:10177C000000121000001110001002400000014087
:10178C0000080140000C0140001001400014014011
:10179C00000401400B4B1A68BB69DB430949134039
:1017AC000B607B6A01337B623B681A687B6A22FAA6
:1017BC0003F3002B7FF48EAE00BF00BF2C37BD4669
:1017CC0080BC70470004014080B489B000AF7860E1
:1017DC0039600023FB619AE00122FB6902FA03F3F2
:1017EC003A681340BB61BB69002B00F08D804E4AF8
:1017FC00FB699B08023352F823307B61FB6903F0D1
:10180C0003039B000F2202FA03F37A6913407B61F6
:10181C007B68464A934213D07B68454A93420DD06D
:10182C007B68444A934207D07B68434A934201D178
:10183C00032306E0042304E0022302E0012300E07A
:10184C000023FA6902F00302920093407A699A42EB
:10185C0032D13A4B1A68BB69DB43384913400B60F1
:10186C00364B5A68BB69DB43344913404B60334BEE
:10187C00DA68BB69DB4331491340CB602F4B9A6864
:10188C00BB69DB432D4913408B60FB6903F00303F9
:10189C009B000F2202FA03F37B61234AFB699B082E
:1018AC00023352F823107B69DA431F48FB699B080B
:1018BC000A40023340F82320BB69FF2B01D87B6818
:1018CC0001E07B6804333B61BB69FF2B02D8FB69E9
:1018DC009B0002E0FB69083B9B00FB603B691A68BC
:1018EC000F21FB6801FA03F3DB431A400421FB6868
:1018FC0001FA03F31A433B691A607B68DA68BB6927
:10190C00DB431A407B68DA60FB690133FB613A68A0
:10191C00FB6922FA03F3002B7FF45EAF00BF00BF1C
:10192C002437BD4680BC70470000014000080140D0
:10193C00000C014000100140001401400004014063
:10194C0080B485B000AF78600B467B807B689A686A
:10195C007B881340002B02D00123FB7301E0002392
:10196C00FB73FB7B18461437BD4680BC704780B4B4
:10197C0083B000AF78600B467B8013467B707B781E
:10198C00002B03D07A887B681A6103E07B881A04E9
:10199C007B681A6100BF0C37BD4680BC704780B4B1
:1019AC0085B000AF78600B467B807B68DB68FB60A2
:1019BC007A88FB6813401A04FB68D9437B880B4078
:1019CC001A437B681A6100BF1437BD4680BC704750
:1019DC0080B485B000AF78600B467B804FF48033C9
:1019EC00FB607A88FB681343FB60FA687B689A613A
:1019FC007A887B689A61FA687B689A617B689B69D4
:101A0C00FB607B689B6903F48033002B01D00023BF
:101A1C0000E0012318461437BD4680BC704780B5E2
:101A2C0082B000AF0346FB80084B5A69FB88134019
:101A3C00002B06D0054AFB885361FB88184600F042
:101A4C0007F800BF0837BD4680BD00BF0004014049
:101A5C0080B483B000AF0346FB8000BF0C37BD469B
:101A6C0080BC704780B485B000AF78600023FB6009
:101A7C007B68002B01D1012343E07B681B681A466D
:101A8C00224B1344224AA2FB03231B099A007B68B6
:101A9C001A647B681F4ADA637B68022283F8212070
:101AAC007B681B681B68FB60FB6823F47F5323F087
:101ABC003003FB607B685A687B689B681A437B68C1
:101ACC00DB681A437B681B691A437B685B691A43A2
:101ADC007B689B691A437B68DB691343FA68134381
:101AEC00FB607B681B68FA681A607B6800229A634B
:101AFC007B68012283F821207B68002283F8202058
:101B0C00002318461437BD4680BC7047F8FFFDBF54
:101B1C00CDCCCCCC0000024080B483B000AF786058
:101B2C007B68002B01D1012346E07B681B681A6897
:101B3C007B681B6822F001021A607B681B6800221C
:101B4C001A607B681B6800225A607B681B68002245
:101B5C009A607B681B680022DA607B681B681A46F7
:101B6C00184B1344184AA2FB03231B099A007B68E9
:101B7C001A647B68154ADA637B681A6C7B68DB6BCA
:101B8C00012101FA02F25A607B6800229A627B689A
:101B9C000022DA627B6800221A637B6800225A6397
:101BAC007B6800229A637B68002283F821207B6883
:101BBC00002283F82020002318460C37BD4680BC39
:101BCC00704700BFF8FFFDBFCDCCCCCC000002406D
:101BDC0080B586B000AFF860B9607A603B600023D6
:101BEC00FB75FB6893F82030012B01D102232EE00A
:101BFC00FB68012283F82020FB6893F82130DBB2CC
:101C0C00012B1DD1FB68022283F82120FB680022E6
:101C1C009A63FB681B681A68FB681B6822F0010258
:101C2C001A603B687A68B968F86800F073FCFB6866
:101C3C001B681A68FB681B6842F001021A6005E019
:101C4C00FB68002283F820200223FB75FB7D1846DD
:101C5C001837BD4680BD80B586B000AFF860B9605E
:101C6C007A603B600023FB75FB6893F82030012BF6
:101C7C0001D102234BE0FB68012283F82020FB6892
:101C8C0093F82130DBB2012B3AD1FB68022283F8A6
:101C9C002120FB6800229A63FB681B681A68FB68AA
:101CAC001B6822F001021A603B687A68B968F86810
:101CBC0000F030FCFB68DB6A002B08D0FB681B686B
:101CCC001A68FB681B6842F00E021A600FE0FB6892
:101CDC001B681A68FB681B6822F004021A60FB6818
:101CEC001B681A68FB681B6842F00A021A60FB68E2
:101CFC001B681A68FB681B6842F001021A6005E059
:101D0C00FB68002283F820200223FB75FB7D18461C
:101D1C001837BD4680BD80B485B000AF7860002315
:101D2C00FB737B6893F82130DBB2022B08D07B6805
:101D3C0004229A637B68002283F82020012320E090
:101D4C007B681B681A687B681B6822F00E021A609D
:101D5C007B681B681A687B681B6822F001021A609A
:101D6C007B681A6C7B68DB6B012101FA02F25A600A
:101D7C007B68012283F821207B68002283F82020D5
:101D8C00FB7B18461437BD4680BC704780B584B0C9
:101D9C0000AF78600023FB737B6893F82130DBB2D3
:101DAC00022B05D07B6804229A630123FB7351E05C
:101DBC007B681B681A687B681B6822F00E021A602D
:101DCC007B681B681A687B681B6822F001021A602A
:101DDC007B681B68224A934229D07B681B68214A86
:101DEC00934222D07B681B681F4A93421AD07B68AF
:101DFC001B681E4A934212D07B681B681C4A934294
:101E0C000AD07B681B681B4A934202D14FF48013A3
:101E1C000EE04FF080730BE04FF4803308E04FF48A
:101E2C00805305E04FF4807302E0102300E001239F
:101E3C00114A53607B68012283F821207B680022C1
:101E4C0083F820207B685B6B002B03D07B685B6B7B
:101E5C0078689847FB7B18461037BD4680BD00BF9D
:101E6C00080002401C0002403000024044000240C6
:101E7C00580002406C0002400000024080B586B061
:101E8C0000AFF860B9607A6000233B61FB6893F89F
:101E9C002130DBB2022B08D0FB6804229A63FB686A
:101EAC00002283F82020012367E1FB681B681B6874
:101EBC0003F02003002B05D0FB684FF480729A636B
:101ECC0001235AE1BB68002B31D1FB681B68884A9F
:101EDC00934229D0FB681B68864A934222D0FB6848
:101EEC001B68854A93421AD0FB681B68834A93424D
:101EFC0012D0FB681B68824A93420AD0FB681B68AD
:101F0C00804A934202D14FF400130EE04FF000735D
:101F1C000BE04FF4003308E04FF4005305E04FF4AE
:101F2C00007302E0202300E002237B6130E0FB68B9
:101F3C001B686F4A934229D0FB681B686D4A934219
:101F4C0022D0FB681B686C4A93421AD0FB681B6852
:101F5C006A4A934212D0FB681B68694A93420AD0C2
:101F6C00FB681B68674A934202D14FF480030EE072
:101F7C004FF080630BE04FF4802308E04FF4804374
:101F8C0005E04FF4806302E0402300E004237B6112
:101F9C00FEF71AFA38616BE05B4B1A68FB681B683A
:101FAC0053498B4229D0FB681B6852498B4222D083
:101FBC00FB681B6850498B421AD0FB681B684F4961
:101FCC008B4212D0FB681B684D498B420AD0FB68D0
:101FDC001B684C498B4202D14FF400030EE04FF0CA
:101FEC0000630BE04FF4002308E04FF4004305E0DE
:101FFC004FF4006302E0802300E008231340002B21
:10200C0017D0FB681A6CFB68DB6B012101FA02F23A
:10201C005A60FB689B6B43F00102FB689A63FB6898
:10202C00012283F82120FB68002283F82020012361
:10203C00A3E07B68B3F1FF3F1AD07B68002B07D07D
:10204C00FEF7C2F902463B69D31A7A689A420FD25C
:10205C00FB689B6B43F02002FB689A63FB680122D0
:10206C0083F82120FB68002283F82020012384E0E0
:10207C00254B1A687B691340002B8DD0BB68002B55
:10208C0044D1FB681B681A4A934229D0FB681B6831
:10209C00184A934222D0FB681B68174A93421AD005
:1020AC00FB681B68154A934212D0FB681B68144AE4
:1020BC0093420AD0FB681B68124A934202D14FF438
:1020CC0000130EE04FF000730BE04FF4003308E008
:1020DC004FF4005305E04FF4007302E0202300E0BE
:1020EC000223094A5360FB68012283F821203FE058
:1020FC00080002401C000240300002404400024034
:10210C00580002406C00024000000240FB681B6853
:10211C001C4A934229D0FB681B681B4A934222D06D
:10212C00FB681B68194A93421AD0FB681B68184A53
:10213C00934212D0FB681B68164A93420AD0FB6884
:10214C001B68154A934202D14FF480030EE04FF006
:10215C0080630BE04FF4802308E04FF4804305E0EC
:10216C004FF4806302E0402300E004230B4A5360E9
:10217C00FB68002283F82020002318461837BD4640
:10218C0080BD00BF080002401C000240300002402D
:10219C0044000240580002406C0002400000024023
:1021AC0080B584B000AF78607B68DB6B1B68FB602C
:1021BC007B681B681B68BB607B681B6C04229A40A5
:1021CC00FB681340002B4FD0BB6803F00403002BBB
:1021DC004AD07B681B681B6803F02003002B07D1D7
:1021EC007B681B681A687B681B6822F004021A6003
:1021FC007B681B68664A934229D07B681B68654ADA
:10220C00934222D07B681B68634A93421AD07B6846
:10221C001B68624A934212D07B681B68604A9342E7
:10222C000AD07B681B685F4A934202D14FF480034B
:10223C000EE04FF080630BE04FF4802308E04FF486
:10224C00804305E04FF4806302E0402300E0042368
:10225C00554A53607B68DB6A002B00F094807B68E6
:10226C00DB6A786898478EE07B681B6C02229A4088
:10227C00FB681340002B56D0BB6803F00203002B05
:10228C0051D07B681B681B6803F02003002B0BD11B
:10229C007B681B681A687B681B6822F00A021A604C
:1022AC007B68012283F821207B681B68384A9342A3
:1022BC0029D07B681B68374A934222D07B681B6805
:1022CC00354A93421AD07B681B68344A934212D029
:1022DC007B681B68324A93420AD07B681B68314A80
:1022EC00934202D14FF400130EE04FF000730BE059
:1022FC004FF4003308E04FF4005305E04FF4007343
:10230C0002E0202300E00223274A53607B6800226E
:10231C0083F820207B689B6A002B34D07B689B6AF7
:10232C00786898472FE07B681B6C08229A40FB6802
:10233C001340002B28D0BB6803F00803002B23D0DC
:10234C007B681B681A687B681B6822F00E021A6097
:10235C007B681A6C7B68DB6B012101FA02F25A6014
:10236C007B6801229A637B68012283F821207B68B9
:10237C00002283F820207B681B6B002B04D07B6829
:10238C001B6B7868984700BF00BF1037BD4680BDF7
:10239C00080002401C000240300002404400024091
:1023AC00580002406C0002400000024080B487B02C
:1023BC0000AFF8600B467A60FB720023FB75FB687C
:1023CC0093F82030012B01D1022331E0FB6801226C
:1023DC0083F82020FB6893F82130DBB2012B20D14D
:1023EC00FB7A032B1AD801A252F823F00924000817
:1023FC00112400081924000821240008FB687A68BD
:10240C009A6210E0FB687A68DA620CE0FB687A6822
:10241C001A6308E0FB687A685A6304E00123FB75D1
:10242C0001E00123FB75FB68002283F82020FB7D73
:10243C0018461C37BD4680BC704780B485B000AFD1
:10244C0078600B46FB700023FB737B6893F820309D
:10245C00012B01D1022340E07B68012283F820206C
:10246C007B6893F82130DBB2012B2FD1FB78042B46
:10247C0029D801A252F823F099240008A1240008BD
:10248C00A9240008B1240008B92400087B680022A4
:10249C009A621DE07B680022DA6219E07B680022F8
:1024AC001A6315E07B6800225A6311E07B680022F6
:1024BC009A627B680022DA627B6800221A637B686E
:1024CC0000225A6304E00123FB7301E00123FB7338
:1024DC007B68002283F82020FB7B18461437BD460E
:1024EC0080BC704780B483B000AF78607B6893F891
:1024FC002130DBB218460C37BD4680BC704780B427
:10250C0083B000AF78607B689B6B18460C37BD4678
:10251C0080BC704780B485B000AFF860B9607A6059
:10252C003B60FB681A6CFB68DB6B012101FA02F261
:10253C005A60FB681B683A685A60FB685B68102B32
:10254C0008D1FB681B687A689A60FB681B68BA68DC
:10255C00DA6007E0FB681B68BA689A60FB681B6866
:10256C007A68DA6000BF1437BD4680BC704700BF84
:10257C0080B485B000AF78607B6803F00703FB6024
:10258C000C4BDB68BB60BA684FF6FF031340BB60B3
:10259C00FB681A02BB68134343F0BF6343F4003378
:1025AC00BB60044ABB68D36000BF1437BD4680BC17
:1025BC00704700BF00ED00E080B400AF044BDB6857
:1025CC001B0A03F007031846BD4680BC704700BFCA
:1025DC0000ED00E080B483B000AF0346FB7197F9C7
:1025EC000730002B0BDBFB7903F01F02064997F930
:1025FC0007305B09012000FA02F241F8232000BFEA
:10260C000C37BD4680BC704700E100E080B483B05D
:10261C0000AF0346FB7197F90730002B12DBFB79F7
:10262C0003F01F020A4997F907305B09012000FAF1
:10263C0002F2203341F82320BFF34F8F00BFBFF3CA
:10264C006F8F00BF00BF0C37BD4680BC704700BF0A
:10265C0000E100E080B483B000AF0346FB7197F952
:10266C000730002B0EDB0A4A97F907305B09403321
:10267C0052F82320FB7903F01F0322FA03F303F033
:10268C00010300E0002318460C37BD4680BC7047A0
:10269C0000E100E080B483B000AF0346FB7197F912
:1026AC000730002B0CDBFB7903F01F02074997F96D
:1026BC0007305B09012000FA02F2403341F8232075
:1026CC0000BF0C37BD4680BC704700BF00E100E086
:1026DC0080B483B000AF0346FB7197F90730002B31
:1026EC000CDBFB7903F01F02074997F907305B09F4
:1026FC00012000FA02F2603341F8232000BF0C37AE
:10270C00BD4680BC704700BF00E100E080B483B0E0
:10271C0000AF0346FB7197F90730002B0EDB0A4A1A
:10272C0097F907305B09803352F82320FB7903F0CB
:10273C001F0322FA03F303F0010300E00023184601
:10274C000C37BD4680BC704700E100E080B483B01C
:10275C0000AF03463960FB7197F90730002B0ADB99
:10276C003B68DAB20C4997F907301201D2B20B442C
:10277C0083F800230AE03B68DAB20849FB7903F0DE
:10278C000F03043B1201D2B20B441A7600BF0C3774
:10279C00BD4680BC704700BF00E100E000ED00E0EA
:1027AC0080B483B000AF0346FB7197F90730002B60
:1027BC0009DB0C4A97F90730134493F80033DBB26A
:1027CC001B09DBB209E0084AFB7903F00F03043B59
:1027DC0013441B7EDBB21B09DBB218460C37BD461B
:1027EC0080BC704700E100E000ED00E080B489B0EF
:1027FC0000AFF860B9607A60FB6803F00703FB6117
:10280C00FB69C3F10703042B28BF0423BB61FB69DD
:10281C000433062B02D9FB69033B00E000237B61E8
:10282C004FF0FF32BB6902FA03F3DA43BB681A407C
:10283C007B699A404FF0FF317B6901FA03F3D9436E
:10284C007B680B40134318462437BD4680BC704749
:10285C0080B489B000AFF860B9607A603B60BB6847
:10286C0003F00703FB61FB69C3F10703042B28BFCB
:10287C000423BB61FB690433062B02D9FB69033BC0
:10288C0000E000237B61FA687B69DA404FF0FF318E
:10289C00BB6901FA03F3DB431A407B681A604FF003
:1028AC00FF327B6902FA03F3DA43FB681A403B6898
:1028BC001A6000BF2437BD4680BC704780B400AF9F
:1028CC00BFF34F8F00BF064BDB6803F4E062044993
:1028DC00044B1343CB60BFF34F8F00BF00BFFDE72A
:1028EC0000ED00E00400FA0580B582B000AF78601E
:1028FC007B68013BB3F1807F01D301230FE00A4ACF
:10290C007B68013B53600F214FF0FF30FFF71EFF38
:10291C00054B00229A60044B07221A6000231846CC
:10292C000837BD4680BD00BF10E000E080B582B026
:10293C0000AF78607868FFF71BFE00BF0837BD4614
:10294C0080BD80B586B000AF0346B9607A60FB737A
:10295C0000237B61FFF730FE78617A68B96878698B
:10296C00FFF744FF024697F90F3011461846FFF760
:10297C00EDFE00BF1837BD4680BD80B582B000AFFC
:10298C000346FB7197F907301846FFF723FE00BF8B
:10299C000837BD4680BD80B582B000AF0346FB71E1
:1029AC0097F907301846FFF731FE00BF0837BD46D0
:1029BC0080BD80B500AFFFF781FF80B582B000AF5E
:1029CC0078607868FFF790FF034618460837BD46D5
:1029DC0080BD80B500AFFFF7EFFD0346184680BD04
:1029EC0080B584B000AFB9607A603B600346FB737E
:1029FC0097F90F301846FFF7D3FE3B687A68B96831
:102A0C00FFF726FF00BF1037BD4680BD80B582B0F2
:102A1C0000AF0346FB7197F907301846FFF73AFEF3
:102A2C0000BF0837BD4680BD80B582B000AF0346FD
:102A3C00FB7197F907301846FFF70CFE0346184652
:102A4C000837BD4680BD80B582B000AF0346FB7130
:102A5C0097F907301846FFF73BFE00BF0837BD4615
:102A6C0080BD80B582B000AF0346FB7197F907308B
:102A7C001846FFF74BFE034618460837BD4680BD87
:102A8C0080B483B000AF78607B68042B06D1094B0F
:102A9C001B68084A43F00403136005E0054B1B68F0
:102AAC00044A23F00403136000BF0C37BD4680BCFE
:102ABC00704700BF10E000E080B500AF00F002F8F6
:102ACC0000BF80BD80B400AF00BFBD4680BC704766
:102ADC0080B400AF20BF00BF00BFBD4680BC7047B4
:102AEC0080B400AF074B1B69064A43F08053136157
:102AFC00044B1B69034A23F08053136100BFBD468E
:102B0C0080BC70470010024080B400AF034B012220
:102B1C001A6000BFBD4680BC704700BF20000E424B
:102B2C0080B400AF034B00221A6000BFBD4680BCCE
:102B3C00704700BF20000E4280B483B000AF7860B5
:102B4C002A4B1B6823F0E0027B681B682749134360
:102B5C000B60274B5B68264A23F480335360244B6D
:102B6C001B68234A23F480331360214BDB68204A13
:102B7C0023F48033D3601E4B9B681D4A23F48033AF
:102B8C0093607B685B6803F48033002B05D0184B93
:102B9C001B68174A43F4803313607B685B6803F44B
:102BAC000033002B05D0124B5B68114A43F4803381
:102BBC0053607B685B6803F00103002B05D00C4B62
:102BCC009B680B4A43F4803393607B685B6803F02B
:102BDC000203002B05D0064BDB68054A43F4803317
:102BEC00D36000BF0C37BD4680BC704700700040FE
:102BFC000004014080B400AF034B01221A6000BFF7
:102C0C00BD4680BC704700BF10000E4280B400AFC0
:102C1C00034B00221A6000BFBD4680BC704700BF4A
:102C2C0010000E4280B485B000AF78607B68FB600A
:102C3C00FB6893FAA3F3BB60BB68B3FA83F3DBB214
:102C4C001A46054B13449B001A460123136000BF20
:102C5C001437BD4680BC70472080831080B485B08B
:102C6C0000AF78607B68FB60FB6893FAA3F3BB60F2
:102C7C00BB68B3FA83F3DBB21A46054B13449B00D3
:102C8C001A460023136000BF1437BD4680BC704742
:102C9C002080831080B483B000AF78600B46FB704B
:102CAC00094B1B69084A23F004031361FB78012BC1
:102CBC0001D130BF02E040BF20BF20BF00BF0C37A6
:102CCC00BD4680BC704700BF00ED00E080B582B00F
:102CDC0000AF78600B46FB70134B1B68124A23F055
:102CEC0002031360104B1B6823F001020E497B6832
:102CFC0013430B600D4B1B690C4A43F00403136127
:102D0C00FB78012B01D130BF04E040BFFFF7E0FEA0
:102D1C00FFF7DEFE054B1B69044A23F00403136125
:102D2C0000BF0837BD4680BD0070004000ED00E0DC
:102D3C0080B400AF084B1B68074A43F002031360D2
:102D4C00064B1B69054A43F00403136130BF00BFF7
:102D5C00BD4680BC704700BF0070004000ED00E035
:102D6C0080B400AF044B1B69034A43F002031361A8
:102D7C0000BFBD4680BC704700ED00E080B400AFE2
:102D8C00044B1B69034A23F00203136100BFBD46C9
:102D9C0080BC704700ED00E080B400AF044B1B69B1
:102DAC00034A43F01003136100BFBD4680BC70475B
:102DBC0000ED00E080B400AF044B1B69034A23F024
:102DCC001003136100BFBD4680BC704700ED00E0EE
:102DDC0080B500AF064B5B6903F48033002B05D044
:102DEC0000F008F8024B4FF480325A6100BF80BDEE
:102DFC000004014080B400AF00BFBD4680BC7047EA
:102E0C00F0B587B000AFF860B960C7E900230123C3
:102E1C00FB750023BB7500237B752F4B1B7E012B91
:102E2C0001D1022354E02C4B01221A764CF2503083
:102E3C0000F016FA0346FB75FB7D002B44D1FB68B2
:102E4C00012B02D101237B7507E0FB68022B02D119
:102E5C0002237B7501E004237B750023BB752DE0F9
:102E6C00BB7D5A00BB6802EB030CBB7D1901D7E993
:102E7C000023C1F12006A1F1200022FA01F403FA8B
:102E8C0006F6344323FA00F0044323FA01F5A3B207
:102E9C001946604600F0C8F94CF2503000F0E0F9E9
:102EAC000346FB750D4B1B690C4A23F001031361A0
:102EBC00FB7D002B07D1BB7D0133BB75BA7D7B7DC0
:102ECC009A42CDD300E000BF034B00221A76FB7D63
:102EDC0018461C37BD46F0BD880500200020024076
:102EEC0080B586B000AFF860B960C7E90023002355
:102EFC00FB75194B1B69184A43F4A0531361174A0D
:102F0C00BB6893601549D7E90023C1E90423FB682A
:102F1C00012B06D1114B03221A70104B01225A605F
:102F2C000FE0FB68022B06D10C4B04221A700B4BE2
:102F3C0002225A6005E0094B05221A70074B042245
:102F4C005A603B881946B86800F06EF9FB7D18464C
:102F5C001837BD4680BD00BF002002408805002008
:102F6C0080B582B000AF00237B606B4BDB6803F055
:102F7C001003002B05D1684BDB6803F00403002B16
:102F8C000ED0664B9B687B60644B4FF0FF329A60AF
:102F9C0000F0ACF9786800F0CCF8604B00221A70A5
:102FAC005D4BDB6803F02003002B00F0A0805A4B34
:102FBC002022DA60594B1B78DBB2002B00F0978093
:102FCC00564B1B78DBB2012B2DD1544B5B68013B6C
:102FDC00524A5360514B5B68002B17D04F4B9B6888
:102FEC007B60786800F09CF84C4B9B6803F5806321
:102FFC007B604A4A7B689360474B1B69464A23F0C7
:10300C0002031361786800F0AFFD70E04FF0FF33FE
:10301C007B60424A7B689360404B00221A70786850
:10302C0000F07EF863E03D4B1B78DBB2022B0CD139
:10303C00394B1B69384A23F004031361002000F05C
:10304C006FF8364B00221A7051E0344B5B68013B31
:10305C00324A5360314B5B68002B24D02F4B9B685A
:10306C0002332E4A93602D4B9B687B602B4BD3E92C
:10307C0004014FF000024FF00003020C42EA01423F
:10308C000B0C2649C1E90423234B1B69224A23F06C
:10309C0001031361214BD3E9042393B219467868D9
:1030AC0000F0C2F823E01D4B1B78DBB2032B05D1DB
:1030BC001A4B9B68184600F033F811E0174B1B783D
:1030CC00DBB2042B06D1154B9B68023B184600F073
:1030DC0027F805E0114B9B68063B184600F020F8DA
:1030EC000E4B4FF0FF329A600C4B00221A700B4BB8
:1030FC001B78DBB2002B0BD1074B1B69064A23F064
:10310C0007031361044B1B69034A23F4A053136197
:10311C0000BF0837BD4680BD002002408805002056
:10312C0080B483B000AF786000BF0C37BD4680BC64
:10313C00704780B483B000AF786000BF0C37BD46D9
:10314C0080BC704780B483B000AF0023FB710D4B83
:10315C001B6903F08003002B0DD00A4B0A4A5A60FE
:10316C00084B0A4A5A60074B1B6903F08003002B7B
:10317C0001D00123FB71FB7918460C37BD4680BC8E
:10318C00704700BF0020024023016745AB89EFCD9B
:10319C0080B400AF054B1B69044A43F080031361F4
:1031AC0000231846BD4680BC704700BF002002407B
:1031BC0080B400AF094B1B6903F40073002B07D1DB
:1031CC00064B074A9A60054B064A9A60002300E0BA
:1031DC0001231846BD4680BC704700BF002002404A
:1031EC0023016745AB89EFCD80B400AF054B1B695C
:1031FC00044A23F40073136100231846BD4680BCB7
:10320C00704700BF0020024080B500AFFFF7D1FB34
:10321C0000BF80BD80B400AF024BDB691846BD46D1
:10322C0080BC70478805002080B483B000AF786004
:10323C000B467B80084B0022DA61084B1B69074A5E
:10324C0043F0010313617B687A881A8000BF0C3746
:10325C00BD4680BC704700BF88050020002002409E
:10326C0080B584B000AF7860FDF7AEF8F86010E080
:10327C007B68B3F1FF3F0CD07B68002B07D0FDF7C8
:10328C00A3F80246FB68D31A7A689A4201D2032348
:10329C0025E0154BDB6803F00103002BE8D1124B42
:1032AC00DB6803F02003002B02D00F4B2022DA60E6
:1032BC000D4BDB6803F01003002B0BD10A4BDB69C1
:1032CC0003F00103002B05D1074BDB6803F004036B
:1032DC00002B03D000F00AF8012300E0002318466D
:1032EC001037BD4680BD00BF0020024080B483B0C3
:1032FC0000AF00237B60234BDB6803F01003002B33
:10330C0009D0214BDB6943F002031F4AD3617B6870
:10331C0043F010037B601B4BDB6803F00403002BB2
:10332C0009D0194BDB6943F00103174AD3617B6861
:10333C0043F004037B60134BDB6903F00103002BA8
:10334C000BD0114BDB6943F004030F4AD3610D4BD7
:10335C00DB690C4A23F00103D3617B6840F2011254
:10336C00934206D1074BDB69064A23F00103D36174
:10337C0002E0044A7B68D36000BF0C37BD4680BCBA
:10338C00704700BF002002408805002080B584B043
:10339C0000AF786039600123FB730023BB602F4BB7
:1033AC001B7E012B01D1022353E02C4B01221A76F8
:1033BC007B681B68022B16D14CF25030FFF750FF84
:1033CC000346002B41D1012000F080F94CF2503023
:1033DC00FFF746FF0346FB73214B1B69204A23F082
:1033EC000403136131E04CF25030FFF739FF034610
:1033FC00002B2AD13B684FF0FF321A607B689B6828
:10340C00BB6019E0B86800F0AFFB4CF25030FFF72E
:10341C0027FF0346FB73124B1B69114A23F002036F
:10342C001361FB7B002B03D03B68BA681A600CE07D
:10343C00BB6803F58063BB607B68DB689A027B68C2
:10344C009B681344BA689A42DCD3044B00221A7668
:10345C00FB7B18461037BD4680BD00BF8805002099
:10346C000020024080B584B000AF78600023FB736D
:10347C00174B1B78DBB2002B01D0012323E0154B3B
:10348C001B69144A43F4A05313617B681B68022B1D
:10349C0008D10F4B02221A707B685B68184600F04B
:1034AC0015F90FE00A4B01221A707B68DB68084A99
:1034BC0053607B689B68064A93607B689B681846E0
:1034CC0000F052FBFB7B18461037BD4680BD00BF99
:1034DC00880500200020024080B582B000AFA523F3
:1034EC00BB710123FB7100F013FB0346BB714CF263
:1034FC005030FFF7B5FE0346FB71FB79002B23D14F
:10350C00144B0022DA61144B1B69134A43F020035D
:10351C001361114B1B69104A43F0400313614CF2C9
:10352C005030FFF79DFE0346FB710B4B1B690A4A9B
:10353C0023F020031361FB79002B05D1BB791846CE
:10354C0000F022FA0346FB71FB7918460837BD469A
:10355C0080BD00BF880500200020024080B584B0EB
:10356C0000AF78600123FB73394B1B7E012B01D11B
:10357C00022369E0364B01221A767B681B6803F044
:10358C000103002B1AD07B685B68012B07D17B6889
:10359C009B68184600F0B6F80346FB7306E07B68A0
:1035AC009B68184600F050F90346FB73FB7B002B1D
:1035BC0004D0274B00221A76FB7B45E07B681B6806
:1035CC0003F00203002B0ED07B681B7C184600F026
:1035DC00DBF90346FB73FB7B002B04D01C4B002256
:1035EC001A76FB7B30E07B681B6803F00403002B2E
:1035FC000ED07B685B7C184600F016FA0346FB7312
:10360C00FB7B002B04D0124B00221A76FB7B1BE0B9
:10361C007B681B6803F00803002B11D07B685A6988
:10362C007B681B7E1946104600F034FA0346FB7388
:10363C00FB7B002B04D0064B00221A76FB7B03E0AD
:10364C00034B00221A76FB7B18461037BD4680BD13
:10365C008805002080B582B000AF78607B680722B7
:10366C001A6000F04BFA02467B689A6000F050FA40
:10367C000346DAB27B681A7400F066FA03461A46FF
:10368C007B685A7400BF0837BD4680BD80B485B0D6
:10369C0000AF78600023FB607B680A4A934205D137
:1036AC00094BDB699B0ADBB2FB6004E0064BDB6970
:1036BC009B0CDBB2FB60FB6818461437BD4680BC24
:1036CC00704700BF04F8FF1F0020024080B483B095
:1036DC0000AF7860094B0022DA61094B1B69084A7C
:1036EC0043F004031361064B1B69054A43F0400386
:1036FC00136100BF0C37BD4680BC704788050020A5
:10370C000020024080B586B000AF78600023FB75C6
:10371C004FF6FF73BB824FF6FF737B824FF6FF733E
:10372C003B824FF6FF73FB8100F0E8F902467B68A1
:10373C00DB4313407B607B689BB2DBB2BB827B6854
:10374C001B0A9BB2DBB27B827B681B0C9BB2DBB28D
:10375C003B827B681B0EFB814CF25030FFF780FDE7
:10376C000346FB75FB7D002B62D1344B0022DA61E2
:10377C00FFF7B2FE0346FB75FB7D002B58D1304B97
:10378C001B692F4A43F010031361BB8AFF2B0DD02A
:10379C002C4B1B899AB22B49BB8A13409BB20B81D1
:1037AC004CF25030FFF75CFD0346FB75FB7D002BA4
:1037BC0010D17B8AFF2B0DD0224B5B899AB2214909
:1037CC007B8A13409BB24B814CF25030FFF748FD83
:1037DC000346FB75FB7D002B10D13B8AFF2B0DD0D4
:1037EC00184B9B899AB217493B8A13409BB28B8129
:1037FC004CF25030FFF734FD0346FB75FB7D002B7C
:10380C0010D1FB89FF2B0DD00E4BDB899AB20D49E1
:10381C00FB8913409BB2CB814CF25030FFF720FD5B
:10382C000346FB75064B1B69054A23F01003136115
:10383C00FB7D18461837BD4680BD00BF88050020AB
:10384C000020024000F8FF1F80B586B000AF786002
:10385C000023FB754FF6FF73BB824FF6FF737B8221
:10386C004FF6FF733B824FF6FF73FB8100F046F976
:10387C0002467B6813437B607B689BB2DBB2BB82E6
:10388C007B681B0A9BB2DBB27B827B681B0C9BB2F6
:10389C00DBB23B827B681B0EFB814CF25030FFF796
:1038AC00DFFC0346FB75FB7D002B62D1334B002202
:1038BC00DA61FFF711FE0346FB75FB7D002B58D137
:1038CC002F4B1B692E4A43F010031361BB8AFF2B4D
:1038DC000DD02C4B1B899AB22A49BB8A13439BB23D
:1038EC000B814CF25030FFF7BBFC0346FB75FB7DA4
:1038FC00002B10D17B8AFF2B0DD0224B5B899AB207
:10390C0020497B8A13439BB24B814CF25030FFF71A
:10391C00A7FC0346FB75FB7D002B10D13B8AFF2BCC
:10392C000DD0184B9B899AB216493B8A13439BB214
:10393C008B814CF25030FFF793FC0346FB75FB7DFB
:10394C00002B10D1FB89FF2B0DD00E4BDB899AB2CB
:10395C000C49FB8913439BB2CB814CF25030FFF7DF
:10396C007FFC0346FB75064B1B69054A23F01003CD
:10397C001361FB7D18461837BD4680BD88050020B5
:10398C000020024000F8FF1F80B584B000AF034652
:10399C00FB710023FB734CF25030FFF761FC0346C4
:1039AC00FB73FB7B002B33D11C4B0022DA611C4BCD
:1039BC001B691B4A43F020031361194B1B69184AFE
:1039CC0043F0400313614CF25030FFF749FC0346BF
:1039DC00FB73134B1B69124A23F020031361FB7B0F
:1039EC00002B15D10E4B1B690D4A43F010031361CC
:1039FC000C4BFA7992B21A804CF25030FFF730FC33
:103A0C000346FB73064B1B69054A23F01003136135
:103A1C00FB7B18461037BD4680BD00BF88050020D3
:103A2C000020024000F8FF1F80B584B000AF0346B1
:103A3C00FB710023FB734CF25030FFF711FC034673
:103A4C00FB73FB7B002B1AD10F4B0022DA610F4B5F
:103A5C001B690E4A43F010031361FB7963F0770383
:103A6C00DAB20B4B5A804CF25030FFF7F9FB03469D
:103A7C00FB73064B1B69054A23F010031361FB7B98
:103A8C0018461037BD4680BD880500200020024036
:103A9C0000F8FF1F80B584B000AF78600B46FB7058
:103AAC000123FB734CF25030FFF7DAFB0346FB7338
:103ABC00FB7B002B18D10F4B0022DA610E4B1B69DC
:103ACC000D4A43F0100313617B68FA7892B21A80A6
:103ADC004CF25030FFF7C4FB0346FB73064B1B69DB
:103AEC00054A23F010031361FB7B18461037BD46C3
:103AFC0080BD00BF880500200020024080B400AFCC
:103B0C00024B1B6A1846BD4680BC70470020024021
:103B1C0080B483B000AFA5237B6000233B60094BCE
:103B2C00DB6903F002033B603B68022B02D10023EC
:103B3C007B6001E0A5237B607B6818460C37BD4693
:103B4C0080BC70470020024080B400AF054BDB699D
:103B5C009B08DBB203F00703DBB21846BD4680BC02
:103B6C00704700BF0020024080B483B000AF786083
:103B7C000B4B0022DA610B4B1B690A4A43F0020320
:103B8C001361084A7B685361064B1B69054A43F075
:103B9C004003136100BF0C37BD4680BC704700BFAB
:103BAC00880500200020024080B487B000AF786008
:103BBC0039607B68002B02D03B68002B01D10123BC
:103BCC008FE03B681A687B681A603B681B6803F0DF
:103BDC001F037B6101227B6902FA03F33B613B68A3
:103BEC001B6803F00073002B52D03B689B6803F0FA
:103BFC000103002B06D03D4B9A683C493B691343AB
:103C0C008B6006E0394B9A683B69DB4337491340BC
:103C1C008B603B689B6803F00203002B06D0334B90
:103C2C00DA6832493B691343CB6006E02F4BDA6804
:103C3C003B69DB432D491340CB603B681B6803F0A9
:103C4C00C063B3F1C06F23D1294A7B699B0802334F
:103C5C0052F82330FB607B6903F003039B000F22B7
:103C6C0002FA03F3DB43FA681340FB603B68DA6843
:103C7C007B6903F003039B0002FA03F3FA68134316
:103C8C00FB601B497B699B080233FA6841F82320CF
:103C9C003B685B6803F00103002B06D0134B1A68DA
:103CAC0012493B6913430B6006E0104B1A683B69E1
:103CBC00DB430E4913400B603B685B6803F0020367
:103CCC00002B06D0094B5A6808493B6913434B60DB
:103CDC0006E0064B5A683B69DB43044913404B60D2
:103CEC00002318461C37BD4680BC704700040140B9
:103CFC000000014080B487B000AF786039607B6809
:103D0C00002B02D03B68002B01D1012361E07B68C2
:103D1C001A683B681A603B681B6803F01F037B61E1
:103D2C0001227B6902FA03F33B612C4B1A683B6955
:103D3C001340002B03D03B6801225A6002E03B6821
:103D4C0000225A60254B5A683B691340002B05D062
:103D5C003B685B6843F002023B685A603B68002298
:103D6C009A603B680022DA603B681B6803F00073C2
:103D7C00002B2DD0194B9A683B691340002B02D0B5
:103D8C003B6801229A60154BDA683B691340002BA3
:103D9C0005D03B689B6843F002023B689A603B6825
:103DAC001B6803F0C063B3F1C06F11D10C4A7B697F
:103DBC009B08023352F82330FB607B6903F003034A
:103DCC009B00FA6822FA03F303F00F023B68DA60F7
:103DDC00002318461C37BD4680BC704700040140C8
:103DEC000000014080B487B000AF78607B68002B86
:103DFC0001D101234CE07B681B6803F01F037B613E
:103E0C0001227B6902FA03F33B61244B1A683B697C
:103E1C00DB43224913400B60204B5A683B69DB4360
:103E2C001E4913404B607B681B6803F00073002B2A
:103E3C002DD01A4B9A683B69DB43184913408B60B1
:103E4C00164BDA683B69DB4314491340CB607B6843
:103E5C001B6803F0C063B3F1C06F18D1104A7B69C3
:103E6C009B08023352F82330FB607B6903F0030399
:103E7C009B000F2202FA03F3DB43FA681340FB604A
:103E8C0007497B699B080233FA6841F82320002319
:103E9C0018461C37BD4680BC704700BF000401406B
:103EAC000000014080B487B000AFF8600B467A6028
:103EBC00FB720023FB75FB7A002B03D1FB687A683D
:103ECC005A6002E00123FB7500BFFB7D18461C37CE
:103EDC00BD4680BC704780B483B000AF7860396059
:103EEC007B68002B01D1012303E07B683A681A60E0
:103EFC00002318460C37BD4680BC704780B584B093
:103F0C0000AF78607B681B6803F01F03012202FA84
:103F1C0003F3FB600A4B5B69FA681340BB60BB6838
:103F2C00002B09D0064AFB6853617B685B68002B49
:103F3C0002D07B685B68984700BF1037BD4680BDD8
:103F4C000004014080B487B000AF786039607B68B2
:103F5C001B6803F01F037B6101227B6902FA03F3E8
:103F6C003B61074B5A693B691A407B6922FA03F3A0
:103F7C00FB60FB6818461C37BD4680BC704700BF11
:103F8C000004014080B485B000AF786039607B6874
:103F9C001B6803F01F03012202FA03F3FB60044ABF
:103FAC00FB68536100BF1437BD4680BC704700BF2F
:103FBC000004014080B485B000AF78607B681B685A
:103FCC0003F01F03012202FA03F3FB60034AFB68B0
:103FDC00136100BF1437BD4680BC7047000401401C
:103FEC0080B500AFFCF774F900F00EF800F047F85C
:103FFC004FF400510348FDF7D2FC4FF47A70FCF7F4
:10400C0029FAF5E70010014080B590B000AF07F138
:10401C00180328220021184600F05AFC3B1D0022F0
:10402C001A605A609A60DA601A610223BB6101233C
:10403C00BB621023FB6200237B6307F11803184655
:10404C00FCF776FB0346002B01D000F04BF80F2356
:10405C007B600023BB600023FB6000233B610023DB
:10406C007B613B1D00211846FCF7E4FD0346002B49
:10407C0001D000F037F800BF4037BD4680BD80B599
:10408C0086B000AF07F1080300221A605A609A60EC
:10409C00DA60124B9B69114A43F0100393610F4B8A
:1040AC009B6903F010037B607B6800224FF4C041D6
:1040BC000B48FDF75CFC4FF4C043BB600123FB6075
:1040CC0000233B6102237B6107F108031946044876
:1040DC00FDF7F6F900BF1837BD4680BD0010024051
:1040EC000010014080B400AF72B600BFFEE700BF05
:1040FC0080B400AFFEE780B400AFFEE780B400AF41
:10410C00FEE780B400AFFEE780B400AFFEE780B4FA
:10411C0000AF00BFBD4680BC704780B400AF00BF8D
:10412C00BD4680BC704780B400AF00BFBD4680BCAC
:10413C00704780B500AFFCF735F900BF80BD0000BB
:10414C0080B485B000AF154B9B69144A43F0010352
:10415C009361124B9B6903F00103BB60BB680F4B6F
:10416C00DB690E4A43F08053D3610C4BDB6903F0DF
:10417C0080537B607B680A4B5B68FB60FB6823F0B9
:10418C00E063FB60FB6843F08063FB60044AFB6800
:10419C00536000BF1437BD4680BC7047001002400E
:1041AC000000014080B586B000AF7860144A154B12
:1041BC00D31A7B617B693B61134B1B68002B02D1CB
:1041CC00114B124A1A60104B1A687B6813443A69F7
:1041DC009A4207D200F054FC03460C221A604FF0AE
:1041EC00FF3309E0084B1B68FB60074B1A687B68C0
:1041FC001344054A1360FB6818461837BD4680BD4A
:10420C000050002000040000A8050020F808002041
:10421C0080B400AF00BFBD4680BC704780B400AF17
:10422C0001231846BD4680BC704780B582B000AFF4
:10423C007860396000F024FC034616221A604FF0B7
:10424C00FF3318460837BD4680BD80B582B000AF3D
:10425C0078604FF0FF317868FFF7E7FFFEE780B535
:10426C0086B000AFF860B9607A6000237B610AE029
:10427C00AFF300800146BB685A1CBA60CAB21A7010
:10428C007B6901337B617A697B689A42F0DB7B68DE
:10429C0018461837BD4680BD80B586B000AFF860B3
:1042AC00B9607A6000237B6109E0BB685A1CBA6074
:1042BC001B781846AFF300807B6901337B617A6908
:1042CC007B689A42F1DB7B6818461837BD4680BD87
:1042DC0080B483B000AF78604FF0FF3318460C37D2
:1042EC00BD4680BC704780B483B000AF7860396045
:1042FC003B684FF400525A60002318460C37BD46F9
:10430C0080BC704780B483B000AF7860012318463E
:10431C000C37BD4680BC704780B485B000AFF860E8
:10432C00B9607A60002318461437BD4680BC7047CC
:10433C000EB480B482B000AF78604FF0FF331846F3
:10434C000837BD4680BC03B0704780B582B000AF63
:10435C00786000F095FB03460A221A604FF0FF3399
:10436C0018460837BD4680BD80B582B000AF786076
:10437C0000F086FB034602221A604FF0FF3318460A
:10438C000837BD4680BD80B483B000AF78604FF075
:10439C00FF3318460C37BD4680BC704780B483B0E1
:1043AC0000AF786039603B684FF400525A600023CC
:1043BC0018460C37BD4680BC704780B582B000AF44
:1043CC007860396000F05CFB03461F221A604FF0E6
:1043DC00FF3318460837BD4680BD80B500AF00F0EE
:1043EC004FFB03460B221A604FF0FF33184680BD7B
:1043FC0080B584B000AFF860B9607A6000F040FB23
:10440C0003460C221A604FF0FF3318461037BD4696
:10441C0080BD805800080000002080050020800529
:10442C000020F408002000000348044B834202D013
:10443C00034B03B11847704780050020800500200E
:10444C00000000000548064B1B1AD90F01EBA30115
:10445C00491002D0034B03B1184770478005002068
:10446C00800500200000000010B5064C237843B9ED
:10447C00FFF7DAFF044B13B10448AFF300800123BC
:10448C00237010BDB005002000000000C8570008C4
:10449C0008B5054B1BB105490548AFF30080BDE8D5
:1044AC000840FFF7CFBF00BF00000000B40500209C
:1044BC00C8570008FBF762FE0B480C490C4A002356
:1044CC0002E0D458C4500433C4188C42F9D3094ABE
:1044DC00094C002301E013600432A242FBD300F02C
:1044EC00D5FAFFF77DFD7047000000208005002005
:1044FC008058000880050020F4080020FEE700002A
:10450C0008B50021044600F007FB034B1B6803B100
:10451C0098472046FFF799FE04070020024A0349FA
:10452C00034800F069B900BF1400002025540008AE
:10453C00280000200C4B416810B59942044601D06C
:10454C0000F06AFFA168094B994202D0204600F0A6
:10455C0063FFE168064B994204D02046BDE8104049
:10456C0000F05ABF10BD00BFCC050020340600205F
:10457C009C06002008B54B6EDA0702D48B899B058C
:10458C0001D5002008BD886D00F0B2FA002008BDEE
:10459C0008B54B6EDA0702D48B899B0501D5002038
:1045AC0008BD886D00F0ACFA002008BD2DE9F84379
:1045BC0000250423304C314A3149DFF8C890DFF82C
:1045CC00C880324F324E116004F15C00294608223B
:1045DC00C4E90335C4E90055C4E90555A560656611
:1045EC0000F076F904F15800C4E90749C4E90987D9
:1045FC00E66200F075FA274B2946082204F1C40044
:10460C006367C4E91A55C4E91E552567C4F8CC5034
:10461C00C4F8805000F05CF904F1680304F1C000A8
:10462C00C4F88430C4E92298C4E9247600F058FA1E
:10463C00194B294604F596700822C4F8DC30C4E9FD
:10464C003455C4E93855C4F8D850C4F83451C4F8BA
:10465C00E85000F03DF904F1D003C4E93D87C4F8FB
:10466C00F09004F59470C4F8FC60C4F8EC30BDE82C
:10467C00F84300F035BA00BFCC0500200407002039
:10468C00294500084948000871480008B14800084D
:10469C00D54800080900010012000200F8B50646D2
:1046AC002A4800F025FA2A4B1B68002B43D0294FCF
:1046BC00D7E90134013B04D524E05A1C04F1680409
:1046CC0020D0B4F90C50013B002DF6D1224B04F153
:1046DC005800E360656600F003FA1C4800F010FA1D
:1046EC0008222946C4E90155C4E904552560A56191
:1046FC0004F15C0000F0ECF8C4E90C55C4E9115568
:10470C002046F8BD3D680DB12F46D1E74FF4D67168
:10471C00304600F0B7FB044680B1042305602946FF
:10472C0025460C304FF4D072A060636000F0D0F8D6
:10473C003C602F46BCE7FFF739FFB8E703483C6005
:10474C0000F0DEF90C233360DAE700BF2807002005
:10475C0004070020140000200100FFFF10B50446E0
:10476C000A4800F0C5F9636B23B9094B094A1B6869
:10477C00626323B1BDE81040044800F0C1B9FFF7F3
:10478C0015FFBDE81040014800F0BAB92807002019
:10479C000407002041450008014800F0A9B900BFFA
:1047AC0028070020014800F0ABB900BF2807002003
:1047BC0008B5054800F09CF9BDE808400020034A04
:1047CC00034900F019B800BF28070020140000208E
:1047DC008145000808B50020044A054900F00CF892
:1047EC00BDE80840034800F08BB900BF140000205E
:1047FC009D450008280700202DE9F8434FF00009DB
:10480C0080460F461646D6E90154013D10D4A389C3
:10481C00012B08D9B4F90E30013304D0214640469F
:10482C00B84749EA0009013D6B1C04F16804EED15C
:10483C003668002EE7D14846BDE8F88310B50C4623
:10484C00B1F90E1000F0F0F8002803DB236D0344DF
:10485C00236510BDA38923F48053A38110BD00BF31
:10486C00002070472DE9F0410C46B1F90C101F46A1
:10487C00CB05054616460BD421F48051A1813B464D
:10488C0032462846B4F90E10BDE8F04100F0E2B80B
:10489C00B4F90E100223002200F0B0F8B4F90C1099
:1048AC00EAE700BF10B50C46B1F90E1000F0A6F8FF
:1048BC00B4F90C30421C0EBF23F4805343F48053E4
:1048CC002065A38110BD00BFB1F90E1000F04EB8E9
:1048DC00830730B546D08446841805E0634603F858
:1048EC00011B9D0703D09C46A445F7D130BD013A6E
:1048FC000244A2EB0C02032A29D9CCB204EB042407
:10490C000F2A04EB04442FD9A2F1100C2CF00F0C3D
:10491C0003F11005AC44C3E90044C3E9024410336D
:10492C006345F8D112F00C0F02F00F0E18D01A4696
:10493C002EF0030C9C44AEF1040542F8044B624586
:10494C00FBD125F0030404330EF003022344002AA8
:10495C00CCD0C9B21A4403F8011B9342FBD130BD31
:10496C007246F4E70346C6E79646E0E7002238B500
:10497C00064D044608462A60FFF7AAFC431C00D0EB
:10498C0038BD2B68002BFBD0236038BD08070020F6
:10499C00194B1B6883422ED0416C70B5054681B112
:1049AC0000268C593CB121462468284600F076F943
:1049BC00002CF8D1696C0436802EF2D1284600F018
:1049CC006DF9A96B11B1284600F068F92C6C34B163
:1049DC0021462468284600F061F9002CF8D1E96CD6
:1049EC0011B1284600F05AF96B6B1BB12846BDE893
:1049FC007040184770BD70472000002038B50C4639
:104A0C00114600228446074D20462A601A46644609
:104A1C00FFF782FC431C00D038BD2B68002BFBD069
:104A2C00236038BD0807002038B50C46114600221B
:104A3C008446074D20462A601A466446FFF70FFC51
:104A4C00431C00D038BD2B68002BFBD0236038BD35
:104A5C000807002038B50C46114600228446074D45
:104A6C0020462A601A466446FFF716FC431C00D009
:104A7C0038BD2B68002BFBD0236038BD0807002005
:104A8C00014B1868704700BF2000002070B50F4B19
:104A9C000F4DAB42A3EB050607D00024B61055F81A
:104AAC00043B01349847A642F9D800F089FE094D21
:104ABC00094B5E1BAB424FEAA60606D0002455F804
:104ACC00043B01349847A642F9D870BD74580008CD
:104ADC0074580008745800087C580008704700BFD0
:104AEC00704700BF704700BF704700BF704700BFE2
:104AFC00704700BF0120704701207047704700BF0E
:104B0C00704700BF024B13B1024800F065B8704704
:104B1C0000000000055700082DE9F04F82462C4B91
:104B2C002C4F83B018688B46CDF804A0FFF7E0FF3C
:104B3C003E68AEB14FF000094FF001087468651E75
:104B4C000ED4013406EB8404BBF1000F0FD0D4F863
:104B5C0000315B450BD0013D6A1CA4F10404F6D175
:104B6C001B4B186803B0BDE8F04FFFF7C9BF736863
:104B7C002268013BAB420CBF7560C4F8009072B167
:104B8C00D6F8881108FA05F30B42D6F804A00CD11C
:104B9C00904773683A68534513D1B24211D1013D25
:104BAC006B1CA4F10404CFD1DAE7D6F88C01D4F84D
:104BBC008010034209D10198904773683A685345B5
:104BCC00EBD0002ACCD01646B8E708469047E0E771
:104BDC00680100202C070020002301461A461846C5
:104BEC0000F0ACBD2DE9F84306460820894600F0DC
:104BFC0097FD0546DFF89880304600F001FCD8F8A8
:104C0C0008305F6827F00307A7F11104A4EB09042F
:104C1C002C44B4FBF5F4013C05FB04F4A54208DC80
:104C2C000021304600F056FDD8F808303B4498423D
:104C3C0005D0304600F0EAFB0020BDE8F883304692
:104C4C00614200F047FD01300FD0124AD8F808300D
:104C5C003F1B47F001075F60136830461B1B136056
:104C6C0000F0D4FB0120BDE8F8830021304600F0B1
:104C7C0031FDD8F80820831A0F2BDADD43F001033D
:104C8C005360054B03491B68C01A0860D1E700BF8D
:104C9C0078010020300700206C01002000295AD038
:104CAC00F8B50C46074600F0ABFB54F804CC724D3B
:104CBC00A4F108022CF00103D118A8684E688842B0
:104CCC0026F003060CF0010E7CD04E60881940686B
:104CDC0000F00100BEF1000F2ED154F8084C05F184
:104CEC00080C121B23449468644560D0D2F80CE085
:104CFC00C4F80CE0CEF8084000287DD043F0010049
:104D0C0050600B60B3F5007F2ED25809D9080123EF
:104D1C0083406868013103436B6055F8310005EB43
:104D2C00C103083BC2E9020345F83120C260384692
:104D3C00BDE8F84000F06ABB70B9334405F1080CCB
:104D4C00886843F0010460456ED0C968C160886012
:104D5C005460D350D6E770474CF00101B3F5007F97
:104D6C0044F8041CD350D0D3B3F5206F4FEA532131
:104D7C0044D2990901F1390001F13804C1006818D5
:104D8C0069580838884203D155E08968884204D0B4
:104D9C004C6824F003049C42F7D8C868C2E902109E
:104DAC0082603846BDE8F840CA6000F02FBB80BB7B
:104DBC001E44D1E90213CB60996046F001035360A5
:104DCC009651B4E71E44BEF1000F07D154F8083CCD
:104DDC00D21A1E44D2E90213CB60996046F001034B
:104DEC005360264BAA601B68B342A0D8244B3846AC
:104DFC001968FFF7F7FE9AE73344A1E714290DD998
:104E0C0054291FD8190B01F16F0001F16E04C10078
:104E1C00B5E743F0010050600B6088E701F15C00DE
:104E2C0001F15B04C100AAE7C5E90422C2E902CC86
:104E3C005460D3507BE70123A410A3406C68234338
:104E4C006B60ABE7B1F5AA7F06D8D90B01F17800FE
:104E5C0001F17704C10092E740F25450814206D828
:104E6C00990C01F17D0001F17C04C10087E74FF43E
:104E7C007E717E2483E700BF780100207001002042
:104E8C00600700202DE9F04F01F10B05162D0646A9
:104E9C0083B024D8102900F2AE8000F0B1FA1025AE
:104EAC0018234FF0020CC04F3B445C68A3F108027E
:104EBC00944200F05F8130466368E268A16823F099
:104ECC000303CA60234491605A68083442F001021B
:104EDC005A6000F09BFA204603B0BDE8F08F35F025
:104EEC00070500F18880A94200F2858000F088FA5D
:104EFC00B5F5FC7FC0F0B1816B0A00F08380042B08
:104F0C0000F26E81AB0903F1390C03F1380E4FEA54
:104F1C00CC00A54F384444680838A04207D10DE0B6
:104F2C00002AE16880F22081884207D00C46636831
:104F3C0023F003035A1B0F2AF2DDF446DFF86C82D0
:104F4C003C69444500F0FD80636823F00309A9EB3C
:104F5C0005030F2B00F38681002BC7E9048880F230
:104F6C007081B9F5007FD7F804E080F00A81012345
:104F7C004FEAD9014FEA5919194403FA09F357F8C2
:104F8C0031204EEA030E07EBC103083BA260E3603D
:104F9C00C7F804E047F83140D46001204FEAAC0375
:104FAC009840704535D810EA0E0F07D12CF0030C41
:104FBC00400010EA0E0F0CF1040CF9D007EBCC0AF0
:104FCC00D646E146DEF80C300BE059681C4621F061
:104FDC0003014A1B0F2ADB6800F30F81002A80F2C1
:104FEC0023819E45F1D109F1010919F0030F0EF14E
:104FFC00080EE7D160E10C2333600024204603B097
:10500C00BDE8F08F4FF400704FF0400C4FF03F0EA6
:10501C007FE7BC68636823F00309A94504D3A9EBB7
:10502C0005030F2B00F39080614B08201B6803F1E4
:10503C00100804EB0903009300F072FB5D4A8346F1
:10504C001368A844013305D008F1FF38804443426B
:10505C0003EA08084146304600F03CFBB0F1FF3F44
:10506C008246544A00F0198104EB0903834200F292
:10507C001281514B0BF1FF3C18684044186000F052
:10508C0068811168013100F0708104EB0902AAEB10
:10509C00020202441A601AF00702CDE9002300F064
:1050AC002A81C2F108029244D04408EA0C015A4405
:1050BC00521A02EA0C0B5946304600F00BFB421C0C
:1050CC00019B00F06F81A0EB0A0000EB0B08186845
:1050DC0048F001025844BC42C7F808A01860CAF84E
:1050EC00042017D0B9F10F0F40F242814FF0050C9C
:1050FC006168A9F10C0222F0070201F001011143D1
:10510C0061600F2A04EB0201C1E901CC00F252816B
:10511C00DAF804205446294B1968814238BF1860CC
:10512C00274B1968814238BF186022F00308A84544
:10513C00A8EB050301D30F2B06DC304600F066F913
:10514C005BE7D7F804E028E7621943F0010345F068
:10515C00010565603046BA600834536000F056F9BA
:10516C00204603B0BDE8F08FA2683046D1602344DE
:10517C008A60A9E6DC68A3427FF49DAE0CF1020CB8
:10518C00DCE6B9F5206F4FEA59227DD3142A00F2E0
:10519C00C58002F15C03DB005B32F918FB5808395F
:1051AC00994212D19EE000BF7801002080010020BE
:1051BC00600700206C010020300700205C070020F5
:1051CC00580700209B68994204D05A6822F00302C9
:1051DC004A45F7D8D968C4E902318C60DC60DCE65A
:1051EC00142B5DD9542B00F2A2802B0B03F16F0C06
:1051FC0003F16E0E4FEACC008BE6D4F808C03046B3
:10520C00661945F001056560CCF80C30C3F808C090
:10521C0042F00103C7E90466C6E902887360625074
:10522C0000F0F4F80834E9E621444A68304642F0CC
:10523C0001024A6054F8082FD3609A6000F0E6F837
:10524C00DCE6A144D9F80430304643F00103C9F838
:10525C00043000F0DBF80834D0E64FEAD50C05F149
:10526C00080320E6621943F0010145F00105656071
:10527C003046C7E90422C2E90288516044F809307B
:10528C0000F0C4F80834B9E64FEA991202F1390378
:10529C00DB00383281E7BC4254D0BC68626844E71A
:1052AC0003F15C0C03F15B0E4FEACC0031E65AF8CB
:1052BC000839534540F09F801CF0030F0CF1FF3C64
:1052CC00F5D17B6823EA00037B60400098423FF6EF
:1052DC00A0AE18B99DE6400009F104091842FAD0B5
:1052EC00CC466BE60120921000FA02F24EEA020E56
:1052FC00C7F804E06FE70AEB080202EA0C02ABEB1A
:10530C00020202EA0C0B5946304600F0E3F9431C4A
:10531C00019B7FF4D8AEDDF800B0D8E6542A2BD828
:10532C004FEA193202F16F03DB006E3235E7B3F549
:10533C00AA7F2BD8EB0B03F1780C03F1770E4FEA15
:10534C00CC00E6E52D4B0BF1FF3C1868404418608F
:10535C0097E61AEA0C0F7FF494AED7F808A0C8446D
:10536C0048F00102CAF80420D4E6C2F800A092E684
:10537C000123CAF80430E0E6B2F5AA7F25D84FEA3B
:10538C00D93202F17803DB00773206E740F254524F
:10539C00934225D8AB0C03F17D0C03F17C0E4FEA44
:1053AC00CC00B6E5009A4FF0000B083A9044A8EBFD
:1053BC000A088CE6304604F108010093FFF76EFCF6
:1053CC00009BD7F808A01868A2E640F254539A4202
:1053DC000DD84FEA994202F17D03DB007C32DCE60A
:1053EC004FF47E704FF07F0C4FF07E0E91E54FF432
:1053FC007E737E22D1E67B6867E700BF3007002012
:10540C000148FFF775BB00BF1C0700200148FFF7E0
:10541C0077BB00BF1C07002070B500293FD00646A3
:10542C000C4610B1436B002B3CD0636EB4F90C20CE
:10543C00DD0732D4900538D52146304600F054F8BB
:10544C00E36A054633B13046E16998470028B8BF96
:10545C004FF0FF35A3891A0639D4216B41B104F101
:10546C004003994202D03046FFF718FC0023236317
:10547C00616C21B13046FFF711FC00236364FFF728
:10548C008BF90022636EA281DB071CD5A06DFFF7A0
:10549C002BFBFFF787F9284670BD002ACCD10025DD
:1054AC00284670BDFFF75AF9BFE7A06DFFF720FB48
:1054BC00B4F90C30002BBFD1636ED907EFD4A06DBB
:1054CC00FFF71EFBEBE7A06DFFF71AFBDEE730469C
:1054DC002169FFF7E3FBC0E7024B01461868FFF7B1
:1054EC009BBF00BF20000020B1F90C20F8B51307BA
:1054FC000C46074648D4496842F400630029A3814E
:10550C005FDDA66A002E3DD0002112F480523D686A
:10551C00396062D101233846E169B047461C024626
:10552C0068D0B4F90C30A66A580705D56368D21A4E
:10553C00236B0BB1E36BD21A0023E1693846B047F9
:10554C00411CB4F90C304AD139681D293FD82E4A78
:10555C00CA40D2073BD5002262602269DE04226079
:10556C0023F40062A28101D5002941D0216B3D605A
:10557C0041B104F14003994202D03846FFF78EFB4B
:10558C00002323630020F8BD0E69002EFAD0920789
:10559C0018BF00230D6808BF4B690E60AD1B8B60F4
:1055AC000CE02B463246D4F824C03846E169E0477B
:1055BC00B0F1000CA5EB0C05664406DD002DF0DC0B
:1055CC00E0E7E16B00299CDCDCE7B4F90C3043F03C
:1055DC0040034FF0FF30A381F8BD226DA4E70022F9
:1055EC0062602269226023F40062DB04A281BDD5D3
:1055FC002065BBE73B68002B93D01D2B01D0162BED
:10560C00E3D13D60BEE700BF0100402038B5054640
:10561C000C4608B1436B03B3B4F90C0088B1636E4C
:10562C00DB0701D481050FD528462146FFF75CFF27
:10563C00636E0546DA0702D4A3899B0508D5284674
:10564C0038BD0546284638BDA06DFFF751FAEBE78B
:10565C00A06DFFF755FA284638BDFFF77FF8DBE75A
:10566C0050B338B5174B04461D680DB16B6BBBB10D
:10567C00B4F90C0088B1636EDB0701D4810513D536
:10568C0028462146FFF730FF636E0546DA0702D441
:10569C00A3899B050CD5284638BD0546284638BD40
:1056AC002846FFF75BF8E3E7A06DFFF721FAE7E781
:1056BC00A06DFFF725FAEEE7034A04490448FFF70B
:1056CC009BB800BF200000201400002019560008D1
:1056DC0028000020002238B5064D044608462A60F2
:1056EC00FEF760FD431C00D038BD2B68002BFBD0AF
:1056FC00236038BD0807002038B5074D074C2C1B1C
:10570C00A41005D0013C55F8043D9847002CF9D164
:10571C00BDE8384000F05AB8805800087C580008A2
:10572C00082802D14FF48050704708B5FFF7A8F94C
:10573C00162203464FF0FF301A6008BD2DE9F843DE
:10574C001B4D0646286898460F469146FFF7D0F940
:10575C00184B1C681CB3286865681F2D22DC4EB9D9
:10576C006B1C0235636044F82570FFF7C9F9002003
:10577C00BDE8F883012304EB8501C1F88890D4F8C7
:10578C008821AB401A43022EC4F88821C1F8088145
:10579C00E6D1D4F88C211A43C4F88C21E0E7064CEE
:1057AC001C60D8E7FFF7ACF94FF0FF30E0E700BF23
:1057BC00680100202C070020640700200000000076
:1057CC00F8B500BFF8BC08BC9E467047F8B500BFE2
:0857DC00F8BC08BC9E467047B2
:1057E400000000000000000001020304060708098D
:1057F400000000000102030402030405060708096F
:105804000A0B0C0D0E0F1010010200000203040518
:10581400060708090A0B0C0D0E0F101001020000F8
:105824003E410C4111412741364103410641154196
:105834000F410E41264113412941024119410A41B8
:105844000B4100003E410C411141274136410341C7
:10585400064115410F410E412641134129410241A0
:0858640019410A410B4100004B
:08586C00A0A8FF7F010000006D
:08587400114B00089D440008DF
:04587C007544000867
:1058800000127A001000000001000000AC050020AA
:10589000000000000000000003000000CC05002014
:1058A000280000200000000000000000CC050020BF
:1058B000340600209C0600200000000000000000CC
:1058C00000000000000000000000000000000000D8
:1058D00000000000000000000000000000000000C8
:1058E00000000000000000000000000000000000B8
:1058F00000000000000000000000000000000000A8
:105900000000000000000000000000000000000097
:105910000000000000000000000000000000000087
:105920000000000000000000000000000000000077
:105930000000000000000000000000000000000067
:1059400001000000000000000E33CDAB34126DE604
:10595000ECDE05000B00000000000000000000006D
:105960000000000000000000000000000000000037
:105970000000000000000000000000000000000027
:105980000000000000000000000000000000000017
:105990000000000000000000000000000000000007
:1059A00000000000000000000000000000000000F7
:1059B00000000000000000000000000000000000E7
:1059C00000000000000000000000000000000000D7
:1059D00000000000000000000000000000000000C7
:1059E000000000000000000024070020FFFFFFFF70
:1059F00000000200000000000000000000000000A5
:105A00007801002078010020800100208001002022
:105A100088010020880100209001002090010020D2
:105A20009801002098010020A0010020A001002082
:105A3000A8010020A8010020B0010020B001002032
:105A4000B8010020B8010020C0010020C0010020E2
:105A5000C8010020C8010020D0010020D001002092
:105A6000D8010020D8010020E0010020E001002042
:105A7000E8010020E8010020F0010020F0010020F2
:105A8000F8010020F80100200002002000020020A0
:105A9000080200200802002010020020100200204E
:105AA00018020020180200202002002020020020FE
:105AB00028020020280200203002002030020020AE
:105AC000380200203802002040020020400200205E
